{
  "address": "0x9A15Df3435dbeb135D2D91a07f4882C49F125D7b",
  "abi": [
    {
      "inputs": [
        {
          "internalType": "address",
          "name": "_token",
          "type": "address"
        }
      ],
      "stateMutability": "nonpayable",
      "type": "constructor"
    },
    {
      "inputs": [
        {
          "internalType": "address",
          "name": "to",
          "type": "address"
        },
        {
          "internalType": "uint256",
          "name": "value",
          "type": "uint256"
        }
      ],
      "name": "mint",
      "outputs": [],
      "stateMutability": "nonpayable",
      "type": "function"
    }
  ],
  "transactionHash": "0xa8b7b0f7911a6a4697abe6921ce6feb00d2f9e0074e62213ffe9c665aad1a06c",
  "args": [
    "0x03d5d17f47Cd74C9858a77378A26f336763D2889"
  ],
  "numDeployments": 1,
  "solcInputHash": "2e61f21e2392618bb17af0a4c1a60e08",
  "bytecode": "0x608060405234801561001057600080fd5b5060405161051538038061051583398101604081905261002f91610054565b600080546001600160a01b0319166001600160a01b0392909216919091179055610082565b600060208284031215610065578081fd5b81516001600160a01b038116811461007b578182fd5b9392505050565b610484806100916000396000f3fe608060405234801561001057600080fd5b506004361061002b5760003560e01c806340c10f1914610030575b600080fd5b61004361003e366004610298565b610045565b005b60005461005c906001600160a01b03168383610060565b5050565b6100e38363a9059cbb60e01b848460405160240161007f92919061030a565b60408051601f198184030181529190526020810180517bffffffffffffffffffffffffffffffffffffffffffffffffffffffff167fffffffff00000000000000000000000000000000000000000000000000000000909316929092179091526100e8565b505050565b600061013d826040518060400160405280602081526020017f5361666545524332303a206c6f772d6c6576656c2063616c6c206661696c6564815250856001600160a01b03166101809092919063ffffffff16565b8051909150156100e3578080602001905181019061015b91906102ce565b6100e35760405162461bcd60e51b8152600401610177906103ea565b60405180910390fd5b606061018f8484600085610199565b90505b9392505050565b6060824710156101bb5760405162461bcd60e51b815260040161017790610356565b6101c485610259565b6101e05760405162461bcd60e51b8152600401610177906103b3565b600080866001600160a01b031685876040516101fc91906102ee565b60006040518083038185875af1925050503d8060008114610239576040519150601f19603f3d011682016040523d82523d6000602084013e61023e565b606091505b509150915061024e82828661025f565b979650505050505050565b3b151590565b6060831561026e575081610192565b82511561027e5782518084602001fd5b8160405162461bcd60e51b81526004016101779190610323565b600080604083850312156102aa578182fd5b82356001600160a01b03811681146102c0578283fd5b946020939093013593505050565b6000602082840312156102df578081fd5b81518015158114610192578182fd5b60008251610300818460208701610447565b9190910192915050565b6001600160a01b03929092168252602082015260400190565b6000602082528251806020840152610342816040850160208701610447565b601f01601f19169190910160400192915050565b60208082526026908201527f416464726573733a20696e73756666696369656e742062616c616e636520666f60408201527f722063616c6c0000000000000000000000000000000000000000000000000000606082015260800190565b6020808252601d908201527f416464726573733a2063616c6c20746f206e6f6e2d636f6e7472616374000000604082015260600190565b6020808252602a908201527f5361666545524332303a204552433230206f7065726174696f6e20646964206e60408201527f6f74207375636365656400000000000000000000000000000000000000000000606082015260800190565b60005b8381101561046257818101518382015260200161044a565b83811115610471576000848401525b5050505056fea164736f6c6343000800000a",
  "devdoc": {
    "kind": "dev",
    "methods": {},
    "version": 1
  },
  "userdoc": {
    "kind": "user",
    "methods": {},
    "version": 1
  },
  "storageLayout": {
    "storage": [
      {
        "astId": 1223,
        "contract": "contracts/Minter.sol:Minter",
        "label": "token",
        "offset": 0,
        "slot": "0",
        "type": "t_contract(IERC20)623"
      }
    ],
    "types": {
      "t_contract(IERC20)623": {
        "encoding": "inplace",
        "label": "contract IERC20",
        "numberOfBytes": "20"
      }
    }
  }
}